:020000040000FA
:1000000000008A11462C0034F200030E8301F10037
:100010000A088A01F000040883120313EE00831219
:1000200003138B1DBF290B1CBF298A11DC238A11E6
:1000300083120313D300D1007F08D000D2005008F0
:10004000FF3A031D2B285108FF3A031D2B2883126A
:1000500003130B10E12A8A11F8238A118312031368
:10006000D500D1007F08D000D4005008FF3A031D0E
:100070008F285108FF3A031D8F288312031307109E
:1000800083120313D00183120313071C4A2883121F
:100090000313D00A831203135008D100510C031824
:1000A0005428831203138710031C59288312031347
:1000B000871483120313D00183120313871C632850
:1000C00083120313D00A831203135008D100510C7A
:1000D00003186D28831203130612031C722883125F
:1000E0000313061683120313D00183120313061E93
:1000F0007C2883120313D00A831203135008D10003
:10010000510C03188628831203130711031C8B2834
:10011000831203130715831203130B10E12A8312B2
:100120000313071083120313D00183120313071C58
:100130009C2883120313D00A831203135008D100A2
:10014000510C0318A628831203138710031CAB2835
:1001500083120313871483120313D0018312031332
:10016000871CB52883120313D00A83120313500887
:10017000D100510C0318BF28831203130612031C6D
:10018000C42883120313061683120313D0018312AB
:100190000313061ECE2883120313D00A83120313FF
:1001A0005008D100510C0318D828831203130711EB
:1001B000031CDD2883120313071583120313051C88
:1001C000DD28851CDD28051DDD2883120313540856
:1001D000FD005508FE000630FF0000308A11E224C1
:1001E0008A1183120313D1007F08D000203ED00073
:1001F00051080318510F003ED1005208FD0053086A
:10020000FE000230FF0000308A11E2248A118312BE
:100210000313D3007F08D200D00753080318530FED
:10022000D10750088312031384008313831203132E
:100230005118831783120313000883120313D2008B
:1002400083120313840A000883120313D300520895
:100250000A3A031D42295308003A031D422983121A
:100260000313EA01EB0183120313EC01ED01831682
:100270000313AB01AC01AD01AE01AF01B001B1019F
:10028000B201BC29831203136A086B04031DBC2945
:100290006A086B04031D5E29831203136C086D0446
:1002A00003195E29EC01ED0183160313AB01AC01C8
:1002B000AD01AE01AF01B001B101B2018312031370
:1002C00052080B3A031D6E295308003A031D6E298C
:1002D000013083120313EA00EB01BC2983120313DC
:1002E000EA01EB01831603132F0883120313D000D6
:1002F00083160313300883120313D10050088316AA
:100300000313B10083120313510883160313B200C1
:100310002D0883120313D000831603132E088312B3
:100320000313D100500883160313AF008312031385
:10033000510883160313B0002B0883120313D00057
:10034000831603132C0883120313D100500883165D
:100350000313AD0083120313510883160313AE0079
:1003600083120313520883160313AB008312031383
:10037000530883160313AC00831203130B10831668
:1003800003130C1CE12A831203130C1CE12A0B300B
:100390008F00DC308E000C10831203136A086B048C
:1003A0000319E12A831603132B0883120313D000C9
:1003B000831603132C0883120313D100FF30D007D8
:1003C000031CD103500883160313AB0083120313DD
:1003D000510883160313AC00831203135008510411
:1003E000031D352A831603132D0883120313D0002F
:1003F000831603132E0883120313D1005004031D28
:10040000352A831603132F0883120313D000831693
:100410000313300883120313D1005004031D352A3F
:1004200083160313310883120313D00083160313BA
:10043000320883120313D1005004031D352A033000
:1004400083160313AB00AC010130AD00AE01AF0168
:10045000B0010230B100B20183120313EA01EB01D3
:10046000013083120313EC00ED01831603132B08F4
:1004700083120313D000831603132C088312031373
:10048000D10000305102031D472A0A305002031CDC
:10049000662A093083160313AB00AC012D088312C2
:1004A0000313D000831603132E0883120313D10005
:1004B000FF30D007031CD103500883160313AD008F
:1004C00083120313510883160313AE00831603131C
:1004D0002D0883120313D000831603132E088312F2
:1004E0000313D10000305102031D782A0630500258
:1004F000031C972A053083160313AD00AE012F08A5
:1005000083120313D00083160313300883120313DE
:10051000D100FF30D007031CD1035008831603130A
:10052000AF0083120313510883160313B000831620
:1005300003132F0883120313D0008316031330080C
:1005400083120313D10000305102031DA92A0A307F
:100550005002031CC82A093083160313AF00B001F0
:10056000310883120313D000831603133208831259
:100570000313D100FF30D007031CD10350088316AA
:100580000313B10083120313510883160313B2003F
:1005900083160313310883120313D0008316031349
:1005A000320883120313D10000305102031DDA2AEE
:1005B0000A305002031CE12A093083160313B100EC
:1005C000B201831203136E088312031384007008B0
:1005D0008A008301710E8300F20E720E09008316E9
:1005E00003138101073085008601870183120313FD
:1005F00086018701073083160313950050308F0062
:10060000C830831203138B000130831603138C0050
:100610008D01073096009A010130990050309B00FF
:100620008030831203139800B030831603139800B0
:10063000831203179E019F01383083120313900029
:100640000B308F00DC308E00302483120313101423
:1006500083120313D601D701D801D90100308312C8
:1006600003135702031D362B043056020318B22B16
:10067000831203135808AB3EDA000030DB00590840
:100680000318590FDB075A088312031384008313DE
:10069000831203135B18831783120313000883125A
:1006A0000313DC0083120313840A0008831203136C
:1006B000DD005C08FD005D08FE000230FF00003038
:1006C0008A11E2248A1183120313DB007F08DA0007
:1006D000383EDA005B0803185B0F003EDB005A0867
:1006E0008312031384008313831203135B1883178D
:1006F00083120313000883120313DC008312031315
:10070000840A000883120313DD00831203136C08AC
:100710006D04031DA22B831203135608013A031D17
:10072000952B5708003A03199F2B83120313560881
:10073000023A031DA22B5708003A031DA22B831275
:1007400003135C16831203135C08FF005D08C923C2
:10075000023083120313D8070318D90AD60A0319E3
:10076000D70A2E2B83120313061764308312031348
:10077000D600D701FF3083120313D607031CD7031B
:1007800056085704031DBA2B831203130613282B94
:1007900008007F0883120313CF0083160313981CED
:1007A000CD2B831203134F08831203139900831672
:1007B0000313981CD72B0800831203130518E42B8E
:1007C0000030FF000030F72B831203138518EC2B49
:1007D0000130FF000030F72B831203130519F42BAF
:1007E0000230FF000030F72BFF30FF00FF30080021
:1007F000831203130715051C052C851C052C051DEC
:10080000052C0030FF0000302F2C83120313061636
:10081000051C122C851C122C051D122C0130FF000A
:1008200000302F2C831203138714051C1F2C851CEA
:100830001F2C051D1F2C0230FF0000302F2C8312AF
:1008400003130714051C2C2C851C2C2C051D2C2C8B
:100850000330FF0000302F2CFF30FF00FF30080076
:1008600083120313CE01CF01831203134F08803E7E
:10087000613E031D3D2C40304E020318452C83126F
:100880000313CE0A0319CF0A342C08006430FE008B
:100890000530FF0080308A11000043258A110000D6
:1008A00083120313DF007F08DE006630E0000530AE
:1008B000E100831203135E08E2005F08E300FF30EB
:1008C000DE07031CDF03620863040319DE2C043017
:1008D0006007E200E301E30D6108E3076208FE0040
:1008E0006308FF0080308A11000043258A11000050
:1008F00083120313E5007F08E4006008FE0061082E
:10090000FF0080308A11000043258A110000831205
:100910000313E700E3007F08E600E200023060070F
:10092000E200E301E30D6108E3076208FE006308EB
:10093000FF0080308A11000043258A1100008312D5
:100940000313E300E9007F08E200E80083120313C9
:100950006408E8006508E900FF30E407031CE503CC
:10096000680869040319D72C6608FE006708FF00B1
:1009700080308A11000030258A1100008312031391
:10098000E8006208831203138400831383120313A5
:1009900063188317680883120313800083120313FC
:1009A000E60A0319E70AE20A0319E30AA62C06304D
:1009B00083120313E0070318E10A592C8A1100007F
:1009C000EF2A080083160313A1007F08A0007E0809
:1009D000A3007D08A200A401A5010830A60083168B
:1009E00003132008A7002108A800271CFD2C2208BB
:1009F000A40723080318230FA50783160313200851
:100A0000A7002108A8000030A81BFF30AA00A900F9
:100A1000281C172DA7012408A9002508AA000030CA
:100A20002907A4002208A8000318280FA507831689
:100A300003132008A7002108A8000310280CA10018
:100A4000270CA0000310A20DA30D2608A700270362
:100A5000A6002608031DEF2C2408FF002508080027
:100A6000003A0319372D803A03193E2D00347E08D1
:100A7000840083137F188317000808007F088A000A
:100A80007E0882000800003A03194B2D803A0319B2
:100A9000552DFF0100347E08840083137F188317CF
:100AA0000008FF00840A000808008A1100003E25A3
:100AB000FD00FE0FFF03FF0A8A1100003E25FC0027
:100AC0007D08FF007C08080006340034C03405347B
:100AD0006A34003402340034B8340534AB340034A2
:100AE00008340034C23405346C3400340234003429
:100AF0008A3405342034003418340034A2340534E8
:100B0000383400341634003403340034B334003441
:100B1000013400340134003402340034033400342E
:100B2000043400340534003406340034073400340F
:100B300008340034093400340A34003400340034FA
:100B40000B340034EE34003428340034A73400343D
:100B5000AD34003469340034CD3400344F340034C3
:100B6000A8340034EF340034E93400341034003455
:100B700000340034003400340034003400340034D5
:080B800000340034003400349D
:02400E00D430AC
:00000001FF
